:020000040800F2
:1000000000040020EB010008F9010008FB010008D2
:10001000FD010008FF0100080102000800000000C7
:1000200000000000000000000000000003020008C3
:10003000050200080000000087010008D93400080C
:1000400059400008CD2B000851350008A12D0008AB
:1000500069060008592D00086D050008B50500085F
:10006000D9050008FD050008210600080B0200085C
:100070000B0200080B0200080B0200080B0200082C
:100080000B0200080B0200080B0200080B0200081C
:100090000B0200080B0200080B02000845060008CE
:1000A00075350008E1350008BD35000899350008B0
:1000B0000536000845360008693600089111000829
:1000C0006D110008D9110008B5110008253200088B
:1000D00049320008113C00086D3C0008C93C00088A
:1000E000910500087D2D0008413F00080B02000823
:1000F0000B0200080B0200080B0200080B020008AC
:100100000B0200080B0200080B0200080B0200089B
:100110000B0200080B0200080B0200080B0200088B
:100120000B0200080B0200080B0200080B0200087B
:10013000DFF80CD000F094F80048004715420008A2
:10014000E03A0020EFF3108072B6704780F3108819
:1001500070471D484FF0FF010170002080F30988AF
:100160001A48012101701A484FF08051016062B6AF
:10017000FEE717484FF080510160704714484FF078
:1001800080510160704772B6EFF3098028B12038C2
:1001900080E8F00F0F490968086000B50E488047F5
:1001A0005DF804EB0D480E490A78027009480D49C4
:1001B0000A680260106890E8F00F203080F3098828
:1001C0004EF0040E62B6704722ED00E0C802002037
:1001D00004ED00E0D0020020451E0008C30200200C
:1001E000C4020020D8020020704708488047084910
:1001F00081F3088807480047FEE7FEE7FEE7FEE7D1
:10020000FEE7FEE7FEE7FEE7FEE7FEE7E90100089E
:10021000E03A00203101000840EA01039B0703D0C7
:1002200009E008C9121F08C0042AFAD203E011F835
:10023000013B00F8013B521EF9D27047CAB2017867
:10024000914203D009B1401CF9E7002070470146F4
:10025000002000E0401C0A5C002AFBD1704700002F
:10026000064C074D06E0E06840F0010394E8070003
:1002700098471034AC42F6D3FFF75EFF9848000869
:10028000B848000870B501EB020410F8015B15F0E6
:10029000070301D110F8013B2A1106D110F8012BF8
:1002A00003E010F8016B01F8016B5B1EF9D12B071D
:1002B00005D40023521E0FD401F8013BFAE710F8D1
:1002C000013B02F10202A1EB030303E013F8015B1F
:1002D00001F8015B521EF9D5A142D6D3002070BDB2
:1002E0002DE9F04106460F4690461D46002401E0E8
:1002F000601CC4B204EB4400204911F8300008B17E
:100300000A2CF5DB0A2C0CDB00BFD1221CA120A09B
:1003100004F054F820A004F051F800BF0020BDE81C
:10032000F081002C0BDD04EB4400144901EBC0010B
:10033000601E00EB4000114A02EBC000416004EB7C
:1003400044000E4901F8306004EB440001EBC000AA
:10035000876004EB440001EBC000C0F80C8004EBA4
:10036000440001EBC000056104EB440001EBC00058
:10037000456104EB440001EBC000D0E7EC33002002
:100380002E2E5C48616C5C54696D65722E630000B2
:1003900025733A256409090074696D6572206372DA
:1003A000656174206572720A0000000010B502F0E9
:1003B0005FFC00F0D5F903F0C3FC0549054803F0E4
:1003C0001FFF05A003F0FAFF03F060F910BD000065
:1003D000E9430008A41E00207466705F7072696EA5
:1003E000746620496E6974616C206F7665720A00CC
:1003F00070472DE9F04106460C460025002734E001
:1004000005EB850004EB8000806880B105EB85007A
:1004100004EB8000027905EB850054F8201005EB11
:10042000850004EB8000836830469847074627B173
:10043000012F03D0022F14D112E013E005EB850049
:1004400004EB8000C06850B105EB850054F8201023
:1004500005EB850004EB8000C2683046904701E060
:1004600000E000BF00BF681CC5B205EB850054F872
:1004700020000028C4D1BDE8F08100002DE9F04142
:10048000044694F80880676807EB0800451E07EBF0
:10049000080628780D2802D028780A2804D10020E0
:1004A00028703846BDE8F08130780D2802D03078C9
:1004B0000A2803D1002030703846F3E700BF2A2213
:1004C00005A10BA003F07AFF2A2203A10AA003F0E2
:1004D00075FF00BF0020E5E72E2E5C436F6D6D6158
:1004E0006E645C436F6D6D616E642E63000000008E
:1004F00025733A2564090900636F6E766572745F2F
:10050000746F5F737472206572726F0A3A25733A62
:1005100025640000002106E0002200E0521CB2F534
:10052000487FFBDB491C8142F6DB7047002105E078
:10053000002200E0521C012AFCDB491C8142F7DB4F
:10054000704707E0002100E0491C41F288329142E7
:10055000FAD3401E0028F5D1704710B5AA2000F04C
:1005600041FA1E20FFF7EDFF10BD000010B5FFF7A8
:10057000E9FD044605480078401C044908702046FF
:10058000FFF7E4FD00F0F2FF10BD0000C102002003
:1005900010B5FFF7D7FD044605480078401C044914
:1005A00008702046FFF7D2FD00F0E0FF10BD00000C
:1005B000C102002010B5FFF7C5FD044605480078CC
:1005C000401C044908702046FFF7C0FD00F0CEFF34
:1005D00010BD0000C102002010B5FFF7B3FD0446B6
:1005E00005480078401C044908702046FFF7AEFD1E
:1005F00000F0BCFF10BD0000C102002010B5FFF7E5
:10060000A1FD044605480078401C044908702046B6
:10061000FFF79CFD00F0AAFF10BD0000C102002002
:1006200010B5FFF78FFD044605480078401C0449CB
:1006300008702046FFF78AFD00F098FF10BD00000B
:10064000C102002010B5FFF77DFD04460548007883
:10065000401C044908702046FFF778FD00F086FF33
:1006600010BD0000C102002010B5FFF76BFD04466D
:1006700005480078401C044908702046FFF766FDD5
:1006800000F074FF10BD0000C10200202DE9F04110
:1006900004460E461746002C22D00EB3394620469B
:1006A000FFF7CCFD05469DB1B5EB040801D44046EB
:1006B00001E0C8F10000024621463046FFF7ACFDDC
:1006C0000022281B01D4014600E04142725404E09C
:1006D0009C2207A10CA003F071FE2846BDE8F08122
:1006E000A12203A108A003F069FE0020F6E70000A4
:1006F0002E2E5C436F6D6D616E645C436F6D6D613A
:100700006E642E63000000006572726F72202025F7
:10071000733A25640A00000070B50646002519E00A
:1007200010210E4800F04CF905F1B00003F070F90B
:1007300000240CE0102141EA241003F069F904F0D0
:100740000F0003F065F9304603F094F9641C802C27
:10075000F0DB6D1C082DE3DB70BD000000140140D0
:1007600008B50121202002F063FA0121402002F0A7
:100770005FFA0121042002F05BFA0121082002F057
:1007800057FA0121102002F053FA0121084602F025
:100790004FFA01203C49086002213B48103800F024
:1007A00011F90320ADF8000010208DF8030003209C
:1007B0008DF8020069463448103800F06FF8C82000
:1007C000ADF8000003208DF8020010208DF8030022
:1007D00069462D48103800F061F82020ADF800007F
:1007E00004208DF8030069462748103800F056F8B9
:1007F0000821264800F0E4F87C20ADF80000032032
:100800008DF8020010208DF8030069461F4800F0A3
:1008100045F804211E4800F0D5F80720ADF8000087
:1008200003208DF8020010208DF803006946184857
:1008300000F034F80220ADF8000010208DF803001D
:1008400003208DF802006946104800F027F84FF4A5
:100850000B60ADF8000010208DF8030003208DF828
:10086000020069460B4800F019F84FF40040ADF85B
:10087000000048208DF8030003208DF8020069462F
:10088000054800F00BF808BD1008014000180140B1
:100890000010014000140140000C01402DE9F0411E
:1008A000024600250026002000230024002791F89E
:1008B00003C00CF00F0591F803C01CF0100F03D01B
:1008C00091F802C04CEA0505B1F800C01CF0FF0F1A
:1008D00031D0146800202BE04FF0010C0CFA00F32B
:1008E000B1F800C00CEA03069E4220D183004FF00D
:1008F0000F0C0CFA03F7BC4305FA03FC4CEA0404A2
:1009000091F803C0BCF1280F06D14FF0010C0CFA8E
:1009100000FCC2F814C00AE091F803C0BCF1480F13
:1009200005D14FF0010C0CFA00FCC2F810C0401CBD
:100930000828D1D31460B1F800C0BCF1FF0F34DD3A
:10094000546800202EE000F1080C4FF0010808FA6E
:100950000CF3B1F800C00CEA03069E4221D18300DB
:100960004FF00F0C0CFA03F7BC4305FA03FC4CEAFA
:10097000040491F803C0BCF1280F05D100F1080C64
:1009800008FA0CF8C2F8148091F803C0BCF1480FC3
:1009900007D100F1080C4FF0010808FA0CF8C2F872
:1009A0001080401C0828CED35460BDE8F081024678
:1009B0000020D3680B4201D0012000E000207047E6
:1009C000416170470161704704490878044909781A
:1009D000024A11700249087070470000200300208D
:1009E0002103002070B50646002409E0002504E03C
:1009F000064800EBC41046556D1C802DF8D3641CCE
:100A0000082CF3D3304600F038FC70BDDC340020F5
:100A10002DE9F0410446884615461E46AC4202D9EF
:100A20002F4625463C46AC4206D13246414620463A
:100A300000F01CF9BDE8F08100BF32464146204677
:100A400000F014F9641CA542F7D83246414620460E
:100A500000F00CF900BFEDE770B500240AE00025B6
:100A600005E00020074901EBC41148556D1C802D9D
:100A7000F7DB641C082CF2DB00F005FC0020FFF71C
:100A8000B1FF70BDDC3400202DE9FF4F81B0074677
:100A900088460398C51B0498A0EB0806002D02DDCC
:100AA0004FF001090DE0002D02DA4FF0FF3908E0A8
:100AB000414638460E9B049A00F078F905B0BDE82F
:100AC000F08F002E02DD4FF0010A0BE0002E02DA5B
:100AD0004FF0FF3A06E0414638460E9B039AFFF777
:100AE00097FFEBE705FB09F506FB0AF64FEA450B16
:100AF00070000090B5421BDB0098441B0FE041469C
:100B000038460E9A00F0B2F84F44002C02DA0098F2
:100B1000044404E00098A0EB0B000444D044039884
:100B20008742ECD1414638460E9A00F09FF819E012
:100B3000ABEB06040EE0414638460E9A00F096F8FC
:100B4000D044002C01DA5C4404E00098ABEB0000D8
:100B500004444F4404988045EDD1414638460E9AEE
:100B600000F084F800BFA9E72DE9F84F0646356884
:100B7000E868322802D20020BDE8F88FA868322841
:100B800001D20020F8E72F6A6C6AD5F828A0D5F8C2
:100B90002C9034480078009004EB0900831E07EB8A
:100BA0000A00821E611C781C00F0B4F94FF00008A6
:100BB00052E0686A00EB090104F10A00814201D2A7
:100BC0000020D9E7AB68296819444A1E26490B78EA
:100BD00004F10A012868FFF71BFFF07C4044717C98
:100BE00088421CD12048007804F1090307F17E02F5
:100BF000611C0090781C00F08DF9FFF7E5FEF07C99
:100C0000404400EB400106F1180050F821200C236D
:100C1000A11CB81C00F0ACF8FFF7D6FE17E0114895
:100C2000007804F1090307F17E02611C0090781C32
:100C300000F070F9F07C404400EB400106F1180030
:100C400050F821200C23A11CB81C00F091F80A34A4
:100C500008F1010000F0FF08707D4045A9DC00BFED
:100C60008AE70000210300202003002070B505461C
:100C70000C461646802D01D3002070BD402C01D3B8
:100C80000020FAE716F0010F0FD0E008114901EB40
:100C9000C010405D04F007010F4A515C0843E108B1
:100CA0000C4A02EBC11148550EE0E008094901EB7E
:100CB000C010405D04F00701074A515C8843E10819
:100CC000044A02EBC11148552146284600F0E0FADB
:100CD0000120D2E7DC340020804800082DE9F047ED
:100CE00005460F461446782D02D30020BDE8F08754
:100CF000382F01D30020F9E7202C01DB7F2C00DD09
:100D00002024A4F12000C4B2002625E0144800EB02
:100D1000C40010F806904FF0000816E0114810F8D3
:100D2000080010EA090F03D10F4890F800A002E074
:100D30000E4890F800A0524639462846FFF796FF25
:100D40006D1C08F1010000F0FF08B8F1060FE5DBAB
:100D50007F1CAD1F701CC6B2082ED7DB0120C5E773
:100D6000784500087848000821030020200300206F
:100D70002DE9F04106460F4614461D460DB9BDE863
:100D8000F0810DE0207800B90CE014F8012B394611
:100D90003046FFF7A3FF00B904E0B61D681EC5B2D8
:100DA000002DEFDC00BF00BFE9E700002DE9F041B6
:100DB00005460C4616461F46B44202D9B0462646A2
:100DC0004446B44206D13A4621462846FFF74EFF34
:100DD000BDE8F08100BF7FB1E008274901EBC010FA
:100DE000405D04F00701254A515C0843E108224AAE
:100DF00002EBC11148550EE0E0081F4901EBC0109D
:100E0000405D04F007011D4A515C8843E1081A4A1D
:100E100002EBC111485504F00700072803D1214611
:100E2000284600F035FA641CA642D4D87FB1E00809
:100E3000114901EBC010405D04F007010F4A515CFD
:100E40000843E1080C4A02EBC11148550EE0E008E6
:100E5000094901EBC010405D04F00701074A515CED
:100E60008843E108044A02EBC1114855214628464F
:100E700000F00EFA00BFABE7DC3400208048000829
:100E80000146C868162801D200207047086808612A
:100E90004A684A618A688A610C22CA6108680862E5
:100EA0004A68C86902444A628A688A62C868163811
:100EB000C86208680863CA68486810440A3848630A
:100EC0008A688A630A2201F13000CA6300BFDCE746
:100ED0002DE9F04106460F4615461C46DDF8188000
:100EE00043462A4639463046FFF792FD43462A4696
:100EF00021463046FFF78CFD4346224639463046B0
:100F0000FFF754FF4346224639462846FFF74EFF77
:100F1000BDE8F0812DE9F04704460F4615461E4610
:100F2000DDF82090AC4202D9A0462C464546B74297
:100F300002D9B84637464646B74207D14B462A46FD
:100F400039462046FFF764FDBDE8F087AC4206D184
:100F50004B46324639462046FFF728FFF4E706E0C5
:100F60004B46324639462046FFF720FF641CAC4210
:100F7000F6D900BFE8E70000024A1070024A11707B
:100F80007047000020030020210300202DE9F843D2
:100F90000446A068142802D3E068142802D2002076
:100FA000BDE8F883A16820680844802801D90020A2
:100FB000F6E7E16860680844402801D90020EFE7BF
:100FC0005A4800780090D4F804C0D4F80C90CC446F
:100FD000ACF10103D4F800C0D4F80890CC44ACF1D3
:100FE0000102D4E90001FFF795FF51480078009015
:100FF000D4F804C0D4F80C90CC44ACF10103D4F87C
:1010000000C0D4F80890CC44ACF10102D4E900014E
:10101000FFF75EFFD4F808C0236863445A1E636874
:1010200003F10C01424B1B782068FFF7F1FC636869
:1010300003F10C021946236803F10C003C4B1B78AA
:10104000FFF7B4FE3A4800780090D4F804C00CF1E1
:101050000C03D4F800C00CF10C0260466168FFF785
:1010600013FD334800780090D4F804C00CF10C0351
:101070006146226802F10C00FFF706FD206CE0B12A
:10108000256C206800F10F06606800F10308A16874
:1010900020680844471E0EE006F10800B84200DD53
:1010A0000AE0287800B907E015F8012B41463046E0
:1010B000FFF714FEB61DEFE700BF606C88B3E06871
:1010C0003C2801D200206BE7D4F808C023686344B1
:1010D0005A1ED4F80CC063686344A3F10B01144B8F
:1010E0001B782068FFF794FC656C2068C61CE168DB
:1010F00060680844A0F10908A16820680844471EF8
:101100000EE006F10800B84200DD0BE0287800B9D7
:1011100008E015F8012B41463046FFF7DFFDB61D0C
:10112000EFE700E000BF01203AE7000021030020C4
:101130002003002070B505460E4600240AE004EBAB
:101140008400084A02EB8000016907A003F036F929
:10115000601CC4B204EB8400024951F8200000284E
:10116000EDD170BD3C00002025730A0010B5FEF7DC
:10117000E9FF044605480078401C044908702046F1
:10118000FEF7E4FF00F0F2F910BD0000C1020020FC
:1011900010B5FEF7D7FF044605480078401C044907
:1011A00008702046FEF7D2FF00F0E0F910BD000005
:1011B000C102002010B5FEF7C5FF044605480078BF
:1011C000401C044908702046FEF7C0FF00F0CEF92D
:1011D00010BD0000C102002010B5FEF7B3FF0446A9
:1011E00005480078401C044908702046FEF7AEFF11
:1011F00000F0BCF910BD0000C102002010B50221B2
:101200001748FFF7DDFB3220FFF784F9022114486D
:10121000FFF7D8FB3220FFF77DF9E22002F0F8FB60
:101220002C2002F0F5FB2E2002F0F2FB2F2002F022
:10123000EFFB232002F0ECFB812002F0E9FB2820E9
:1012400002F0E6FBA22002F0E3FBC82002F0E0FB84
:10125000A02002F0DDFBAF2002F0DAFB10BD0000A1
:1012600000180140F0B504460D46164627463246A2
:101270002946786800F096F8F0BD10B5044620467F
:10128000FFF74AFA10BD10B5FFF7B8FF10BD000018
:1012900070B504460D46E80804EBC016B02101EB1A
:1012A000D50002F0B5FB102141EA141002F0B0FBAA
:1012B00004F00F0002F0ACFBE908034A02EBC11195
:1012C000085D02F0D7FB70BDDC34002010B50221B0
:1012D000012000F001F810BD70B505460C46012D47
:1012E00002D0022D58D128E034B1012C08D0022CB4
:1012F0000BD0032C1ED117E00120294908601AE009
:1013000001202749091D086015E0012124481038F3
:10131000FFF74DFB20B101202149091D086002E0C3
:1013200001201F49086006E001211D481038FFF721
:101330003EFB00E000BF00BF2FE034B1012C0AD01B
:10134000022C0ED0032C24D11DE0022114481038A9
:10135000FFF738FB1EE0022111481038FFF730FB81
:1013600018E002210E481038FFF721FB28B10221B6
:101370000B481038FFF724FB04E00221084810381E
:10138000FFF720FB06E0022105481038FFF70FFBAE
:1013900000E000BF00BF00E000BF00BF012070BD43
:1013A0001008014030B5034607E013F8014B11F86F
:1013B000015BAC4201D0002030BD1046541EE2B2A9
:1013C0000128F2DC0120F7E708B54FF4C06000F017
:1013D00065F81C208DF8000000208DF801008DF8C4
:1013E000020001208DF80300684600F01DF8262059
:1013F0008DF8000000208DF801008DF8020001201A
:101400008DF80300684600F00FF825208DF80000E5
:1014100000208DF801008DF8020001208DF80300F6
:10142000684600F001F808BD70B5002100230F22C6
:10143000C4780CB3164C246804F4E064C4F5E0648A
:10144000210AC1F10403CA40447804FA03F1847804
:101450001440214309010F4C0678A155047804F08B
:101460001F050124AC4005786D114FF0E02606EB16
:101470008505C5F8004109E0047804F01F05012442
:10148000AC40054D0678761145F8264070BD000049
:101490000CED00E000E400E080E100E002490143DF
:1014A000024A1160704700000000FA050CED00E0F0
:1014B0002DE9F04105460F4614464FF000081A4842
:1014C0000078002803DD12202070BDE8F081287824
:1014D000012808D0022807D0032802D0042804D10C
:1014E00000E000BF00BF00BF02E001202070ECE779
:1014F00000BFFEF727FE8046384601F043FA064655
:101500000F2E05DD4046FEF721FE0B202070DCE7A4
:10151000394605F1160001F027FA4046FEF716FE9F
:101520000020207000BFD0E7C102002010B500F0FD
:1015300015F801F0B1F801F0D9F801F0FBF801F06D
:1015400083F801F05BF801F083F901F027F901F06D
:101550004DF900F0B5FD00F007F810BD002001497D
:1015600008807047000300207047000010B5002479
:101570001A480078012830D1FEF7E4FD04461848E7
:101580000078002804DD16480078401E14490870D1
:1015900013480078F0B913480078D8B901F0AEF9D3
:1015A0001148007811490978884213D010480E4933
:1015B000097850F821000F49086008460068C06BA0
:1015C000401C0968C8630C480068401C0A49086050
:1015D000FEF7D4FD2046FEF7B9FD10BDC80200207D
:1015E000C1020020C2020020C4020020C302002069
:1015F00064260020D8020020A80200202DE9F04136
:1016000006460F464FF0000822480078002802DD09
:101610000020BDE8F081FEF795FD80461E48046875
:10162000006820B11C48006840681B4908604046BB
:10163000FEF78CFD0CB3FEF785FD80461748056864
:10164000E5B100680068154908604046FEF77EFD78
:101650006E6006EB8700A860EE602E61AF8200200E
:10166000E882022020700020208165603F20A07564
:101670000021E175204600F0B3FF08E0064800684D
:101680006060054804604046FEF760FD0024204687
:10169000BFE70000C1020020AC020020E4020020ED
:1016A0002DE9F0470746884615464FF0000938787F
:1016B000022804D0012028700020BDE8F0873F48B0
:1016C0000078002803DD022028700020F5E73C4860
:1016D0000078002803DD0D2028700020EDE7FEF7DC
:1016E00031FD81467C68E08A002813DD2169081DF0
:1016F00020610E68E08A401EE082A168206988426D
:1017000001D1606820614846FEF720FD0020287066
:101710003046D2E72B48006890F8300040F00400D3
:101720002849096881F8300000202649096881F8B5
:10173000310024480068A0F82E80384600F010FFE1
:101740004846FEF703FD01F09FF8FEF7FBFC8146DB
:101750001C48006890F8310020B101280DD0022803
:101760000AD105E017480068466A002028700DE09D
:1017700000260E20287009E000BF39461148006895
:1017800000F0BAFE00260A20287000BF00BF00202B
:101790000C49096881F830000A49096881F831006C
:1017A00008490968C8610749096808620549096864
:1017B00048624846FEF7CAFC30467EE7C102002078
:1017C000C2020020D00200202DE9F04105460E465D
:1017D00000272878022802D00120BDE8F081FEF71A
:1017E000B1FC0746688960B10023042231462846CF
:1017F00000F018FE3846FEF7A9FC01F045F800207D
:10180000EBE76C68E08AA18A884204DB3846FEF781
:101810009DFC1E20E1E7E168081DE0600E60E08AA3
:10182000401CE082D4E90210884201D16068E06087
:101830003846FEF78BFC0020CFE7000070B5054668
:10184000002612480078002801DD002070BDFEF758
:1018500079FC06460E480468006820B10C48006810
:1018600040680B4908603046FEF770FC5CB103200D
:1018700020702581002060603F20A0750021E17567
:10188000204600F0ADFE2046E0E70000C102002047
:10189000AC0200202DE9F04105460E461446002713
:1018A0002878032803D001202070BDE8F081344857
:1018B0000078002802DD02202070F6E73148007829
:1018C000002802DD0D202070EFE7FEF73BFC074605
:1018D0002889002808DD2889401E28813846FEF71F
:1018E00035FC00202070E0E72748006890F83000C1
:1018F00040F001002449096881F8300000202249A5
:10190000096881F8310020480068C685284600F043
:1019100027FE3846FEF71AFC00F0B6FFFEF712FC71
:1019200007461948006890F8310020B1012809D015
:10193000022806D102E0002020700BE00E2020706B
:1019400008E000BF29461048006800F0D5FD0A20D5
:10195000207000BF00BF00200B49096881F83000EB
:101960000949096881F8310007490968C8610649D1
:10197000096808623846FEF7E9FB00BF95E70000FA
:10198000C1020020C2020020D002002070B504462F
:1019900000252078032801D0012070BDFEF7D2FB7E
:1019A0000546608960B1002301221946204600F0F7
:1019B00039FD2846FEF7CAFB00F066FF0020ECE781
:1019C00020894FF6FF71884207D22089401C208170
:1019D0002846FEF7BBFB0020DFE72846FEF7B6FBF4
:1019E0003220DAE710B50B48007890B900F086FF96
:1019F000094800780949087009480749097850F8EA
:101A00002100084908600846006807490860FEF799
:101A1000A0FB10BDC8020020C4020020C3020020A9
:101A200064260020D8020020D002002010B5002437
:101A3000022000F009FAFEF785FB044600200B495E
:101A400008602046FEF782FB642000F0FDF9FEF7F7
:101A500079FB0446054800680549086001200549EE
:101A600008702046FEF772FB10BD0000CC0200207B
:101A7000B8020020C0020020704700002DE9FE4F90
:101A800006460F4690461C464FF00009FEF75AFBEB
:101A9000814620480078002805DD4846FEF756FBC1
:101AA0003C20BDE8FE8F1C4850F8240060BB01209C
:101AB000194941F824004846FEF748FB00234246F6
:101AC0003946304600F01AF9824600200090019015
:101AD0000346024651460290204600F05DFF05464F
:101AE00035B90E48007801280CD100F0CDFE09E090
:101AF000FEF728FB81460020074941F824004846AC
:101B0000FEF724FB2846CCE74846FEF71FFB2820BB
:101B1000C7E70000C102002064260020C8020020A0
:101B20002DE9F04F85B081468A4693461C46DDE993
:101B30000F78129D00200390FEF704FB03902348CA
:101B40000078002806DD0398FEF700FB3C2005B076
:101B5000BDE8F08F1E4850F8240088BB01201C49C6
:101B600041F824000398FEF7F1FA2A464146384628
:101B700001F01EF82B465A465146484600F0BEF882
:101B800004901198CDE9008002953A4620460E9BBC
:101B9000049900F001FF064636B90E480078012886
:101BA0000CD100F071FE09E0FEF7CCFA03900020A2
:101BB000074941F824000398FEF7C8FA3046C6E703
:101BC000FFE70398FEF7C2FA2820C0E7C102002011
:101BD00064260020C8020020704770472DE9F047B6
:101BE0000646884614464FF000091D480078002834
:101BF00003DD12202070BDE8F087FEF7A3FA8146CE
:101C0000FF2E03D11748006890F83260164850F84C
:101C100026502DB94846FEF799FA43202070EAE78E
:101C2000012D05D14846FEF791FA43202070E2E7E6
:101C3000404600F0A7FE07460F2F05DD4846FEF799
:101C400085FA41202070D6E7414605F1500000F0AA
:101C50008BFE4846FEF77AFA0020207000BFCAE7E4
:101C6000C1020020D002002064260020704700003E
:101C70002DE9F04707460D464FF0000A0020286086
:101C80006860FEF75FFA8246FF2F03D119480068AB
:101C900090F83270184850F827402CB95046FEF79B
:101CA00055FA4320BDE8F087012C04D15046FEF7D9
:101CB0004DFA4320F6E7208A10F0010F04D1504678
:101CC000FEF744FA4520EDE70026D4F80C90D4F84E
:101CD00008805046FEF73AFA00E0761C58F8041BDC
:101CE0000029FAD0B0002860A9EB060080006860E7
:101CF0000020D7E7D00200206426002070B50446FB
:101D000010464FF080750560051F28462C606FF067
:101D10000106051F28462E604FF01236051F284683
:101D20002E604FF00336051F28462E604FF0023616
:101D3000051F28462E607610051F28462E60051FB9
:101D4000284629604FF01136051F28462E604FF0B7
:101D50001036051F28462E604FF00936051F28460D
:101D60002E604FF00836051F28462E604FF00736CC
:101D7000051F28462E604FF00636051F28462E60A8
:101D80004FF00536051F28462E604FF00436051F1C
:101D900028462E6070BD00002DE9F04105464FF049
:101DA0000008FEF7CFF98046FF2D05D121480068D5
:101DB00090F83250012608E01E48006890F8320082
:101DC000A84201D1012600E000261B4850F825401A
:101DD0002CB94046FEF7BAF94820BDE8F081012C45
:101DE00004D14046FEF7B2F94320F6E794F8347088
:101DF000124830F81700E18E8843104921F8170087
:101E0000084630F8170028B9218F0D48008888430C
:101E10000B49088094F8300040F0080084F8300046
:101E20004046FEF793F9012E01D100F02DFD002070
:101E3000D3E70000D00200206426002058240020B0
:101E4000C60200207047000070B5054600261748FE
:101E50000078002800DD70BD002D24DDFEF772F94A
:101E600006461348006890F83440124830F81400D1
:101E70000F490968C98E88430E4921F814000846A5
:101E800030F8140038B90A480068018F0A48008801
:101E900088430949088006480068C5853046FEF732
:101EA00055F900F0F1FC00BFD5E70000C1020020A9
:101EB000D002002058240020C602002070B5002661
:101EC00000F076F8FEF73EF9064633480068401CFD
:101ED000314908603046FEF739F93048007801286A
:101EE00057D12F48007820B1012804D0022809D109
:101EF00003E001250BE0002509E001250120284928
:101F0000087004E0012500202549087000BF00BFCB
:101F100005B970BD2348046837E0FEF713F906469B
:101F2000E08D70B3E08D401E0004000CE08528D1E8
:101F300094F8300010F0370F09D014F8300F20F06B
:101F40003700207001206070A4F1300402E000200E
:101F500084F8310094F8300010F0080F11D1208F70
:101F60001149098808431049088094F834000F4942
:101F700031F81000E18E084394F834100B4A22F82F
:101F8000110064693046FEF7E1F894F83200402809
:101F9000C3D100BFBDE70000E8020020C802002056
:101FA000E0020020DC020020C602002058240020AD
:101FB00010B507480088401C05490880084600887D
:101FC000642803DB0020088000F050F810BD0000FA
:101FD000000300202DE9F05F8046894692469B462B
:101FE000DDE90B6520480078002804DD8B2028708F
:101FF0000020BDE8F09F00F02DF900F041F8044604
:102000002CB900F091F9862028700020F1E701201A
:1020100084F83100C4F81880C4F81C9084F830A00B
:10202000C4F804B00A98A060BEB1304600F0AAFC23
:102030000746102F05DA314604F1200000F094FC29
:102040000BE0232084F820000021212001558C2062
:10205000287000F069F92046CBE700F065F9002010
:1020600028702046C5E70000C102002010B50348D3
:102070000068FFF78BFC0446204610BDF8020020E4
:102080000C48006808B9002070470A480168094AEE
:10209000C86810600020C860086107480088401CBC
:1020A000054A108005480088401E044A10800846F2
:1020B000EAE70000FC020020EE020020EC02002013
:1020C000F8B5D021264800F0B9FB4021254800F0A2
:1020D000B5FB234C04F1340600250FE0642020708A
:1020E000002084F83100E6603F2084F820000021C1
:1020F0002120015534343436681C85B2032DEDDBC4
:1021000064202070002084F83100E0603F2084F8D3
:1021100020000021212001550020134908601349A7
:1021200008800420124908800D48124908600120E7
:10213000FFF784FB104908600020FFF77FFB0F4981
:1021400008606A460EA10C480068FFF7B1F96A46BC
:102150000EA10A480068FFF7ABF900F01DF8F8BDC2
:1021600008300020D8320020F0020020EE020020CB
:10217000EC020020FC020020F4020020F802002003
:102180004F532D546D724C6F636B00004F532D54A1
:102190006D7253696700000000B587B0032000210D
:1021A00080220A4BCDE90132CDE903104FF6FD70D4
:1021B0000323074A00900748FFF7B2FC06AA06A1CE
:1021C0000320FFF70BFD07B000BD0000D830002052
:1021D000D43200206922000875432F4F532D4949FE
:1021E00020546D720000000070B50B46032580F886
:1021F0003150012B05D1154EC5693668354445610E
:102200000CE085692DB9114EC569366835444561C4
:1022100004E00E4E8569366835444561456905F030
:1022200007040B4D05EBC4010D682DB908600025AE
:10223000C56001258D8006E00A680860C2601061F3
:102240008D886D1C8D800025056170BDF002002019
:10225000D832002008B56A46002102480068FFF71E
:1022600019FB08BDF402002008B500BF6A46002132
:1022700019480068FFF70EFBFFF7ECFF17480068EE
:10228000401C164908600846006800F0070814481A
:1022900000EBC8073C681AE0E66810496069096805
:1022A000884213D1656815B12046A168A847204629
:1022B00000F018F894F83000022804D101212046DB
:1022C000FFF792FF02E0022084F831003446002C30
:1022D000E2D100F029F8C9E7F8020020F00200205E
:1022E000D832002030B5456905F007040D4D05EBE7
:1022F000C4031D68854205D1C168196039B1002544
:102300000D6104E00169C268CA6002B11161012572
:1023100080F831500025C56005619D886D1E9D8047
:1023200030BD0000D832002010B502480068FFF729
:102330002DFB10BDF402002030B5164800684FF4A4
:102340007A72B0FBF2F1B1F1807F01D301201DE080
:1023500021F07F40401E4FF0E022506150170F22C5
:10236000002807DA13071D0E0B4B00F00F04241F83
:102370001D5503E013071C0E084B1C5400BF002022
:102380004FF0E022906107201061002008B100BFEB
:10239000FEE730BD6445000818ED00E000E400E011
:1023A0001FB520211348FFF729F9134908602021A0
:1023B0001248FFF723F91249086020211148FFF75E
:1023C0001DF91149086003A810A100221346CDE9A8
:1023D00000210290022201211046FFF7FBFD0E4969
:1023E00008600A2300220D490120FDF779FF0C49FE
:1023F00008601FBD241D002024000020A41D002013
:1024000028000020241E00202C000020536F66743A
:10241000546D72310000000030000020CD12000821
:10242000200000202DE9FF4F05468A469346688923
:1024300010F0FF0F04D06889C0B22B490E5C06E093
:102440006889294901EB102000780830C6B205F1EF
:102450000C0000EB4607388810F0FF0F05D03888D5
:10246000C0B2214911F8008007E038881E4901EB0D
:1024700010200078083000F0FF0808EB061000F08C
:10248000FF091A4850F82940002004F12404608113
:10249000C4F800A0207B20EA0B002073039860732F
:1024A000207BA4F1240410F0080F0DD1208F1049D7
:1024B000098808430E4908800E4830F81600E18E5E
:1024C00008430C4921F816002946204600F014F86C
:1024D000206A20B12046216A00F024F8E5614846D0
:1024E00004B0BDE8F08F00006244000864260020BC
:1024F000C60200205824002010B590F8342001F1C5
:102500000C0333F81230C48EA34301F10C0424F8F9
:102510001230234633F812301BB94B89048FA34382
:102520004B8110BDF0B5024692F83440158FD68E1F
:102530000B46186811E000F10C0737F81470B74328
:1025400000F10C0C2CF81470674637F8147017B9AA
:102550004789AF4347811B1D18680028EBD1F0BDA8
:1025600010B51C4A1268D0611A4A126892F83430C9
:1025700000F10C0232F81320164B1B68DB8E1A4355
:10258000144B1B6893F8344000F10C0323F814201B
:102590004289104B1B681B8F1A4342810D4A1268F7
:1025A00092F834100C4A32F811200A4B1B68DB8E6B
:1025B0009A43094B23F811201A4632F811203AB9F0
:1025C000044A1268138F054A12889A43034B1A80F3
:1025D00010BD0000D002002058240020C6020020B8
:1025E0000023438100F10C01002204E0002321F8C4
:1025F000023B531CDAB2052AF8DB704770B58C2118
:102600000F4800F01BF90E4C04F11C0600250AE0EF
:102610000020207066603F20A0720021E1721C340F
:102620001C36681C85B2042DF2DB0020207060602F
:102630003F20A0720021E17201480249086070BD8C
:10264000CC210020B002002030B54FF4C8711048F2
:1026500000F0F4F80E4B03F1280500240AE00020F6
:1026600018705D603F2098750021D9752833283592
:10267000601C84B2092CF2DB0020187058603F20E7
:1026800098750021D97502480249086030BD0000E4
:102690003C200020AC02002000200A4908600A49C2
:1026A00008700A4908700A4908700A4908700A49FE
:1026B00008600A4908600A4908600A4908600A492E
:1026C00008707047E8020020C1020020C20200200A
:1026D000C9020020C8020020A8020020CC0200206D
:1026E000BC020020B8020020C002002000220B4BD8
:1026F0001A800B49002004E0002221F8022B421C22
:10270000D0B20528F8DB0022064B1A70064B1A706F
:10271000064B1A60064B1A6070470000C602002084
:1027200058240020C3020020C4020020D802002048
:10273000D002002030B54FF40461144800F07EF858
:102740004FF48271124800F079F8104B03F16005E4
:1027500000240AE05D613F2083F8500000215120F1
:10276000C15460336035601CC4B2152CF2D3002014
:1027700058613F2083F8500000215120C1540020AF
:102780000449086001480449086030BD68270020FA
:1027900064260020DC020020D402002000B587B0AF
:1027A0000320002180220A4BCDE90132CDE903103C
:1027B0004FF6FF704023074A00900748FFF7B0F933
:1027C00006AA06A14020FFF709FA07B000BD0000E5
:1027D0006424002060260020C92A000875432F4F7A
:1027E000532D49492049646C6500000000B587B04D
:1027F0000320002180220A4BCDE90132CDE90310EC
:102800004FF6FE703F23074A00900748FFF788F90C
:1028100006AA06A13F20FFF7E1F907B000BD0000BE
:102820005822002054240020ED2A000875432F4F21
:10283000532D4949205374617400000004E00022C4
:1028400000F8012B4A1E91B20029F8DC7047000005
:1028500070B560210A48FFF7F1FF094C04F1180632
:10286000002504E0266018341836681C85B2032D54
:10287000F8DB0020206002480249086070BD0000BB
:10288000A82F0020E402002010B50024FDF75AFC18
:10289000044613480078F0B912480078D8B900F01F
:1028A0002DF81148007811490978884213D0104852
:1028B0000D49097850F821000E4908600846006863
:1028C000C06B401C0968C8630B480068401C0A497B
:1028D0000860FDF74EFC2046FDF738FC10BD0000F7
:1028E000C1020020C2020020C4020020C302002056
:1028F00064260020D8020020A8020020164A128870
:1029000012F0FF0F05D0144A1288D2B2134B985C14
:1029100007E0124A104B1B8802EB13221278083290
:10292000D0B20F4A02EB40010A8812F0FF0F08D024
:102930000A88D2B2094B9A5C02EB0012094B1A705A
:1029400009E00A88054B03EB1222127802EB001211
:102950000832044B1A707047C60200206244000817
:1029600058240020C40200200246002005E011F88F
:10297000013B02F8013B431CD8B20B78002BF6D187
:10298000137070470146002002E0491C421CD0B27F
:102990000A78002AF9D170472DE9F84F05460E460E
:1029A00017469846DDE90BABDDF828900020009033
:1029B000FDF7C8FB00903E480468002C72D004F17B
:1029C0001C0454F8080C3A4908600098FDF7BEFB57
:1029D00044F81C6CA575002020756075608244F871
:1029E00018AC44F8109C44F8147C24F80CBC24F86F
:1029F0000A8CA0772809207605F00F00E075217E6B
:102A000001208840A083E17D012088406083002070
:102A100020606060E060A0602062A0626062E062AE
:102A200020633F2084F83400A4F11C044FF000011F
:102A30004FF0510001552046FFF71EF82046FFF7E2
:102A4000CBF8FDF77FFB00901A4840F825401A4864
:102A5000006860610020A0611748006810B1164846
:102A60000068846114480460208F14490988084371
:102A70001249088094F83400114931F81000E18EB1
:102A8000084394F834100E4A22F811000D480078DB
:102A9000401C0C4908700098FDF758FB0020BDE869
:102AA000F88FFFE70098FDF751FB4220F7E70000A1
:102AB000D402002064260020DC020020C602002090
:102AC00058240020C9020020002400BFFDF73AFB73
:102AD000044605480068401C034908602046FDF78D
:102AE00035FBFFF77AF8F1E7CC020020002402E082
:102AF000C820FFF7A9F91A4800780028F8D019482B
:102B000000686421B0FBF1F01649086008460068CF
:102B100028B9002014490870FF20FFF73DF900BFD5
:102B2000FDF710FB044611480068114908600020B9
:102B30000E4908602046FDF709FB0D480068094969
:102B40000968B0FBF1F0C0F1640007490870FFF7B5
:102B50008DF800F00FF86420FFF776F9E0E7000049
:102B6000C0020020B8020020B4020020CC020020E5
:102B7000BC0200207CB5002514E069462846FFF71A
:102B800077F8064666B9094850F8254044B1012C4B
:102B900006D0D4E9020100EB8100A0640198E06452
:102BA000681CC5B2402DE8DD7CBD00006426002015
:102BB00012F0010F08D012F0020F05D002E0491EFA
:102BC000002308C00029FAD17047000010B5FDF7B6
:102BD000B9FA044605480078401C044908702046AC
:102BE000FDF7B4FAFEF7C2FC10BD0000C1020020E0
:102BF00029B1064AD2690243044BDA6104E0034A70
:102C0000D2698243014BDA61704700000010024034
:102C100029B1064A12690243044B1A6104E0034ACF
:102C200012698243014B1A61704700000010024094
:102C300029B1064A92690243044B9A6104E0034AAF
:102C400092698243014B9A61704700000010024074
:102C500029B1064AD2680243044BDA6004E0034A11
:102C6000D2688243014BDA607047000000100240D6
:102C700010B500F045FC024800F004F810BD00005B
:102C80001833002030B500210022002400232D4DF0
:102C90006D6805F00C0121B1042905D0082923D164
:102CA00005E0294D056022E0274D05601FE0254D18
:102CB0006D6805F47012022505EB9242214D6D6896
:102CC00005F480341CB9214D554305600BE01D4DC2
:102CD0006D6815F4003F03D01C4D5543056002E0BC
:102CE000194D5543056002E0174D056000BF00BF58
:102CF000144D6D6805F0F0010909154D6B5C056810
:102D0000DD4045600F4D6D6805F4E061090A104D26
:102D10006B5C4568DD4085600A4D6D6805F4605167
:102D2000C90A0B4D6B5C4568DD40C560054D6D689B
:102D300005F44041890B074D6B5CC568B5FBF3F5A5
:102D4000056130BD0010024000127A0000093D000C
:102D50000C0300201C03002010B5FDF7F3F9044616
:102D600005480078401C044908702046FDF7EEF93C
:102D7000FEF7FCFB10BD0000C102002010B5FDF7FE
:102D8000E1F9044605480078401C044908702046D3
:102D9000FDF7DCF9FEF7EAFB10BD0000C1020020E0
:102DA00010B5FDF7CFF9044605480078401C0449EA
:102DB00008702046FDF7CAF9FEF7D8FB10BD0000E9
:102DC000C1020020ADF5227D00BF002090909190BF
:102DD0008020929040209390C4A0A090C6A0A19083
:102DE00090A8FEF74DF890A8FEF7D0F890A878903C
:102DF00000207990C1A07B9006208DF8F001002082
:102E00008DF8F1018DF8F30190A8C06A0A21B0FB9A
:102E1000F1F0C0B28DF8F501BAA07E90002178A83B
:102E20000162CDF8FCD1BAA141620021C16218A9AA
:102E30008162BAA101630021816330A94163BAA113
:102E4000C163002141640164BBA18164002101656B
:102E5000C164BBA141650021C165816590A8009056
:102E600078A80190B8A0039002208DF810000020EF
:102E70008DF811008DF8130090A8C06A0A21B0FBEC
:102E8000F1F09DF81010884202D99DF8100004E07E
:102E900090A8C06A0A21B0FBF1F0C0B28DF815000D
:102EA000ACA00690002108910791ADA109910021E5
:102EB0000B91079190A8189078A91991ABA11B913B
:102EC00002218DF8701000218DF871108DF87310AB
:102ED000C06A0A21B0FBF1F09DF81010884202D9B7
:102EE0009DF8100004E090A8C06A0A21B0FBF1F040
:102EF000C1B28DF875109FA11E91002120911F91E4
:102F00009FA1219100212391229190A8309078A92E
:102F100031919DA1339102218DF8D01000218DF8BF
:102F2000D1108DF8D310C06A0A21B0FBF1F09DF8E2
:102F30001010884202D99DF8100004E090A8C06AE1
:102F40000A21B0FBF1F0C1B28DF8D51090A13691F5
:102F500000213891379190A1399100213B913A910C
:102F600078A800F083F98E480068FDF7FDFDBCE00D
:102F700001F084F80446012C06D0022C7ED0032CEC
:102F800044D0052C7BD15AE000BF85480068417CC5
:102F900084A001F013FA00BF81480068A8B38048FC
:102FA0000068407C00EB40017D480068183000EB71
:102FB0008100406888B17A490968497C01EB410287
:102FC00077490968183101EB8201486800F04EF931
:102FD00073480068FDF7C8FD17E071480068407C41
:102FE00000EB40016E480068183000EB81008068FB
:102FF00058B16B480068407C00EB400168480068AD
:10300000183000EB81008568A8476DE000BF644878
:103010000068417C6BA001F0D1F900BF60480068F6
:1030200060B15F480068406840B15D490968486820
:1030300000F01CF95A480068FDF796FD54E000BF07
:1030400057480068417C67A001F0B8F900BF5448B8
:103050000068417C52480068007C401E81421BDAB7
:103060004F480068407C401C4D49096848744C48F2
:103070000068407C032807DD494801E00DE032E0AC
:103080000068407CC01E00E0002045490968C87403
:1030900043480068FDF768FD26E000BF404800682F
:1030A000417C58A001F08AF900BF3D480068407C8F
:1030B000C0B13B480068407C401E394909684874EB
:1030C00037480068407C032804DD35480068407CB0
:1030D000C01E00E0002032490968C874304800680A
:1030E000FDF742FD00E000BF00BF41E76C69757865
:1030F000697A68656E0000004F4B00006D61696E73
:103100000000000031436F6E74616374730000004F
:10311000324D657373616765000000003353657459
:10312000696E6773000000003450726F64756374D9
:10313000496E666F0000000035546573740000002E
:103140003644656275670000636F6E746163747303
:103150000000000031436F6E746163746572730028
:1031600032416464204E6577000000004D65737342
:1031700061676500314E65774D6573736167650002
:103180003252656365766500536574696E677300D6
:10319000314672656E710000324C656400000000BB
:1031A000380000204B45595F454E543A70416374D6
:1031B0006976654D656E752D3E73746174653D2548
:1031C000640A00004B45595F4241434B3A704163EA
:1031D000746976654D656E752D3E73746174653DD9
:1031E00025640A004B45595F55503A704163746934
:1031F00076654D656E752D3E73746174653D25640D
:103200000A0000004B45595F444F574E3A704163E6
:10321000746976654D656E752D3E73746174653D98
:1032200025640A0010B5FCF78DFF044605480078B8
:10323000401C044908702046FCF788FFFEF796F909
:1032400010BD0000C102002010B5FCF77BFF044652
:1032500005480078401C044908702046FCF776FFBA
:10326000FEF784F910BD0000C102002001460248AB
:1032700001600068704700003800002010B500F0C1
:1032800001F810BD00210020304A126842F480325B
:103290002E4B1A6000BF2D4A126802F40030491C00
:1032A00010B9B1F5A06FF6D1284A126812F4003FA8
:1032B00001D0012000E00020012843D1244A1268F7
:1032C00042F01002224B1A601A46126822F00302E2
:1032D0001A601A46126842F002021A601B4A5268CB
:1032E0001A4B5A601A4652685A601A46526842F49B
:1032F00080625A601A46526822F47C125A601A465A
:10330000526842F4E8125A601A46126842F080721B
:103310001A6000BF0D4A126812F0007FFAD00B4A03
:10332000526822F00302094B5A601A46526842F072
:1033300002025A6000BF054A526802F00C02082AD5
:10334000F9D101E000BFFEE7704700000010024025
:1033500000200240F0B589B006460F463046FDF722
:103360008DF8044600BF64B900BFB72225A12BA089
:1033700001F024F82BA001F021F800BF002009B0D3
:10338000F0BD00BF3A2201A92046FDF77FF9441C99
:1033900000BF5CB900BFB9221AA120A001F00EF84D
:1033A00020A001F00BF800BF0020E8E700BF00BF3D
:1033B00001A920A001F002F800BF3B2201A920468C
:1033C000FDF764F9441C00BF5CB900BFBE220DA12B
:1033D00012A000F0F3FF13A000F0F0FF00BF0020E8
:1033E000CDE700BF01A800F095FEC5B200BF294699
:1033F00012A000F0E3FF00BF284600F039F80020DB
:10340000BDE700002E2E5C436F6D6D616E645C4302
:103410006F6D6D616E642E630000000025733A25A8
:1034200064090900415353455254204641494C0A0E
:10343000000000004B65793A25730A004B657976E8
:10344000616C3A307825780A0000000038B56A4689
:10345000002106480068FEF723F904469DF80000A5
:1034600010B96068C0B238BD0020FCE72C00002015
:1034700010B5044601200A4908700846446009480E
:103480000068FEF7A1F948B100BF252206A10CA0F3
:1034900000F094FF0CA000F091FF00BF10BD0000F1
:1034A000302000202C0000202E2E5C557365725CAD
:1034B00053696D4B65794C617965722E630000002C
:1034C00025733A25640909006D736720506F737482
:1034D000206572720000000010B5FCF733FE044650
:1034E00006480078401C054908702046FCF72EFE6F
:1034F000FEF7E4FCFEF73AF810BD0000C102002020
:1035000010B51048006840F001000E4908600846F8
:1035100040680D4908400B494860084600680B495F
:103520000840084908600846006820F480200860C8
:103530000846406820F4FE00486000208860FFF7DD
:103540009DFE10BD001002400000FFF8FFFFF6FED8
:1035500010B5FCF7F7FD044605480078401C044907
:1035600008702046FCF7F2FDFEF700F810BD0000E1
:10357000C102002010B5FCF7E5FD044605480078BF
:10358000401C044908702046FCF7E0FDFDF7EEFF03
:1035900010BD0000C102002010B5FCF7D3FD0446A9
:1035A00005480078401C044908702046FCF7CEFD11
:1035B000FDF7DCFF10BD0000C102002010B5FCF7D4
:1035C000C1FD044605480078401C044908702046A7
:1035D000FCF7BCFDFDF7CAFF10BD0000C1020020D2
:1035E00010B5FCF7AFFD044605480078401C0449BF
:1035F00008702046FCF7AAFDFDF7B8FF10BD0000DB
:10360000C102002010B5FCF79DFD04460B48007870
:10361000401C0A4908702046FCF798FD01218807E4
:1036200000F0F6F8012806D1054800F08FF90121D5
:10363000880700F06DF8FDF799FF10BDC10200206A
:10364000EC33002010B5FCF77DFD044605480078FA
:10365000401C044908702046FCF778FDFDF786FF02
:1036600010BD0000C102002010B5FCF76BFD044640
:1036700005480078401C044908702046FCF766FDA8
:10368000FDF774FF10BD0000C10200200EB501213E
:103690000846FFF7ADFA4FF0804000F049F84FF4CC
:1036A0001670ADF80400134800684EF66021B0FBB8
:1036B000F1F080B2ADF800000020ADF80600ADF8E2
:1036C000020069464FF0804000F0C0F801218807F1
:1036D00000F012F81F214FF0804000F019F801228D
:1036E0001146900700F0A5F80121880700F013F8B3
:1036F0000EBD00006445000821B1028842F080023E
:10370000028004E0028840F27F331A400280704752
:10371000CA430282704721B1028842F0010202804E
:1037200004E0028840F2FE331A4002807047000035
:1037300010B504463449601A8C4245D00CDCB4F113
:10374000804F1DD03148201823D0B0F5806F29D08C
:10375000B0F5006F54D12EE0B0F5806F3DD0B0F5DC
:103760008E3F03D0B0F5923F4AD13FE00121C8021D
:10377000FFF76EFA00214FF40060FFF769FA40E0AE
:1037800001210846FFF744FA00210120FFF740FA23
:1037900037E001210220FFF73BFA00210220FFF76A
:1037A00037FA2EE001210420FFF732FA002104202D
:1037B000FFF72EFA25E001210820FFF729FA002162
:1037C0000820FFF725FA1CE001211020FFF720FA5E
:1037D00000211020FFF71CFA13E001212020FFF741
:1037E00017FA00212020FFF713FA0AE0012148030D
:1037F000FFF72EFA00214FF40050FFF729FA00E0FE
:1038000000BF00BF10BD00000010004000FCFFBF63
:1038100030B50246002000230024158A05EA010382
:10382000958905EA010413B10CB1012000E00020E4
:1038300030BD10B51AB183890B43838104E08389BD
:10384000CC43A4B22340838110BD0000028802F063
:103850008F020280CA884B881A4303881A43028069
:103860008A8882850A880285054A904202D0054AE4
:10387000904201D10A7A02860122828270470000BA
:10388000002C0140003401400024FEF755FDFEF7F6
:10389000CDF8FEF785FD22E0102101EB4401491C23
:1038A000CBB21D4901EB442101F5FE721B4951F8D1
:1038B00024000021FEF7E2F8054605B90CE000BF40
:1038C000502217A11AA000F079FD21461AA000F09D
:1038D00075FD00BF00BFFEE700BF601CC4B20F480B
:1038E00050F824000028D7D1FDF76EFD002080F3AA
:1038F000108800BF00BF4FF47A70FEF7A5FA0121CF
:103900000846FDF7E9FC4FF47A70FEF79DFA0021B6
:103910000120FDF7E1FCEEE7240500200000002077
:103920002E2E5C557365725C6D61696E2E630000AE
:1039300025733A25640909006572726F723A5473EF
:103940006B496E6465783D3D25640A0070B5054697
:10395000002400BF59E004EB440015F830000128B2
:1039600026D104EB440005EBC0004069A0B904EB8C
:10397000440205EBC202D06804EB440205EBC2022C
:103980009168884704EB440005EBC000006904EB34
:10399000440105EBC101486104EB440005EBC000A4
:1039A0004069401E04EB440105EBC10148612AE077
:1039B00004EB440015F83000022823D104EB440046
:1039C00005EBC000406901280AD104EB440205EB75
:1039D000C202D06804EB440205EBC202916888473A
:1039E00004EB440005EBC000406960B104EB440007
:1039F00005EBC0004069401E04EB440105EBC1012A
:103A0000486100E000BF601CC4B20A2CA3DB70BD9B
:103A100070B5044610211648FCF7D2FF2021144847
:103A2000FCF7CEFF00251FE080211148FCF7C8FFFE
:103A300014F0800F05D04FF400610D48FCF7C2FF71
:103A400004E04FF400610A48FCF7BAFF0220FCF7DB
:103A50006DFD80210648FCF7B5FF0220FCF766FDEE
:103A600060000446681CC5B2082DDDDB70BD000097
:103A70000014014070B5044610211348FCF7A0FF64
:103A800020211148FCF79EFF002519E080210E48F7
:103A9000FCF796FF14F0800F05D04FF400610A4840
:103AA000FCF790FF04E04FF400610748FCF788FF43
:103AB00080210548FCF786FF60000446681CC5B2FB
:103AC000082DE3DB70BD00000014014008B5094873
:103AD000006890F8321008A000F070FC00BF6A4641
:103AE00000210C480068FDF7DBFD4FF47A70FEF70B
:103AF000ABF9F4E7D002002054736B417070507240
:103B00006F63207374617274205072696F3D253049
:103B100032640A00280000200B48006890F8321038
:103B20000AA000F04BFCFCF797FF00210120FDF7F5
:103B300023FAFCF712FDFFF745F900BF4FF47A7046
:103B4000FEF782F9FAE70000D002002054736B47B9
:103B5000756950726F63207374617274205072695A
:103B60006F3D253032640A0000BF0648006890F8B7
:103B7000321005A000F022FC00BF4FF47A70FEF76F
:103B800063F9FAE7D00200205461736B4B65794406
:103B90007269766572207374617274205072696FF5
:103BA0003D253032640A000008B50E48006890F8E0
:103BB00032100DA000F002FC00BF6A46002112483E
:103BC0000068FDF76DFD04462078022802D0042825
:103BD00006D104E00D492046FCF70BFC00E000BFD5
:103BE000EBE70000D002002054736B5573617274D0
:103BF00050726F63207374617274205072696F3DEC
:103C0000253032640A000000240000203C0000201F
:103C100010B5FCF797FA044612480078401C114989
:103C200008702046FCF792FA40F225510E4800F049
:103C3000E8F8012806D140F225510B4800F059F868
:103C400000F090F90821084800F0D2F8012806D1C8
:103C50000821054800F04AF8034800F067F9FDF72D
:103C600085FC10BDC10200200038014010B5FCF7F2
:103C700069FA044612480078401C11490870204631
:103C8000FCF764FA40F225510E4800F0BAF801281A
:103C900006D140F225510B4800F02BF800F062F9F4
:103CA0000821084800F0A4F8012806D10821054899
:103CB00000F01CF8034800F039F9FDF757FC10BD7F
:103CC000C10200200044004010B5FCF73BFA044656
:103CD00005480078401C044908702046FCF736FA75
:103CE000FDF744FC10BD0000C1020020CA43028061
:103CF000704710B5002200230A1201249440A3B299
:103D0000DC43048010BD10B502460020108A4FF23B
:103D1000FF0318400B884C8823438C882343CC88AE
:103D200023431843108210BD21B1828942F400520E
:103D3000828104E082894DF6FF731A4082817047C8
:103D400000B587B0012144F20500FEF771FF4FF482
:103D50000070ADF8180003208DF81A0018208DF8B7
:103D60001B0006A92048FCF799FD4FF48060ADF8D0
:103D7000180048208DF81B0006A91B48FCF78EFD93
:103D80004FF4E13002900020ADF80C00ADF80E00C9
:103D9000ADF81000ADF814000C20ADF812000020B2
:103DA000ADF80000ADF802004FF40070ADF804006B
:103DB0000020ADF8060069460C48FFF7A4FF02A9F1
:103DC0000A4800F065F8012240F22551074800F04A
:103DD0003EF801210548FFF7A7FF40210348FFF700
:103DE00085FF07B000BD0000000801400038014019
:103DF0000246002013880B4201D0012000E0002081
:103E0000704770B502460B460024002100250020B3
:103E1000C3F3421503F01F01012606FA01F1012D3B
:103E200002D19689314006E0022D02D1168A314036
:103E300001E0968A31401C12012606FA04F4168825
:103E4000344011B10CB1012000E0002070BDF0B58C
:103E5000034600240026002500201846C1F3421422
:103E600001F01F06012707FA06F5012C01D10C30DD
:103E700004E0022C01D1103000E014301AB10768C0
:103E80002F43076002E00768AF430760F0BD000002
:103E90002DE9F04786B005460E460024A24600BF35
:103EA00000BF00272F462C8A4CF6FF700440F08894
:103EB00004432C82AC894EF6F3100440B08831895B
:103EC0000843718908430443AC81AC8A4FF6FF4034
:103ED0000440B0890443AC8201A8FEF7D3FE124827
:103EE000874202D1DDF810A001E0DDF80CA00AEB5A
:103EF000CA0000EB0A1031688900B0FBF1F86420B9
:103F0000B8FBF0F004012009642101FB1089322084
:103F100000EB0910B0FBF1F000F00F0004432C811E
:103F200006B0BDE8F08700000038014001468888EF
:103F3000C0F308007047C1F3080282807047000098
:103F400010B5FCF7FFF8044605480078401C04490A
:103F500008702046FCF7FAF8FDF708FB10BD0000DA
:103F6000C102002010B52A48FFF7E0FF2949087078
:103F7000084600780A280FD027480078FF280BDA77
:103F8000084600782549244A127888542248007847
:103F9000401C214908703AE01E4800780A2803D0E6
:103FA0001D480078FF2832DB1A4800781B491A4A5E
:103FB0001278885418480078401C1749087002206D
:103FC000174908701448007808721448486012486D
:103FD0000078FF2809DD00BF422212A116A000F0E0
:103FE000EDF917A000F0EAF90EE00A4800780A2877
:103FF00009D10B48007A022805DD094915480068F7
:10400000FDF7E2FB00E000BF00200349087010BD8F
:10401000003801403500002034000020301F00200F
:10402000241F00202E2E5C557365725C554153523F
:10403000545F4973722E630025733A2564090900A1
:1040400052637642756646756C6C2C206572720AF6
:10405000000000002400002010B5FCF773F80446AF
:1040600005480078401C044908702046FCF76EF8AB
:10407000FDF77CFA10BD0000C102002010B5FFF76B
:10408000E5F90446204610BD02E008C8121F08C129
:10409000002AFAD170477047002001E001C1121FC9
:1040A000002AFBD170470146302904DB392902DCA4
:1040B000A1F130007047612904DB662902DCA1F11F
:1040C0005700F7E7412904DB462902DCA1F137005C
:1040D000F0E74FF0FF30EDE72DE9F04782460D465F
:1040E000164698462F684FF0000906E0B44200DDFE
:1040F00008E009FB064917F801AB5046FFF7D3FF6C
:10410000041EF3DA00BF2F60C8F800905046BDE8E7
:10411000F08700002DE9F041044600252046FCF719
:1041200096F8C7B2042F07DD742221A126A000F063
:1041300045F9681EBDE8F081002634E0207830287B
:1041400009DB2078392806DC14F8010B30381021FF
:1041500005FB010525E0207861280BDB2078662827
:1041600008DC14F8010B6138102101FB050000F197
:104170000A0516E0207841280BDB2078462808DC69
:1041800014F8010B4138102101FB050000F10A056C
:1041900007E0812206A10CA000F010F94FF0FF30DB
:1041A000C8E7701CC6B2BE42C8DB2846C2E70000A2
:1041B0002E2E5C436F6D6D616E645C436F6D6D613F
:1041C0006E642E63000000006572726F722061746D
:1041D0006F695F686578202025733A25640A0000BE
:1041E00070B505460C46002D03DA6D422D2004F80B
:1041F000010B234600220A21284600F007F970BD72
:10420000024A1160024A1060704700000403002057
:1042100008030020012080F3108800BFFCF7C6F8D7
:10422000FCF7E6F8FDF782F90423044A002104486C
:10423000FDF724FCFDF7D6FB00BFFEE720050020BC
:10424000893800082DE9F05F82460D4614469846ED
:104250000A9EB8F1000F01D0302000E020208346F4
:10426000374600E0641E17F8011B09B1002CF9DC89
:1042700002E059465046A847201EA4F10104F8DC8C
:1042800002E049465046A84716F8019BB9F1000FD5
:10429000F7D1BDE8F09FFFB585B006460D4683E037
:1042A000252C03D021463046A8477DE0002700207A
:1042B0000190079810F8014B0790302C04D1079813
:1042C00010F8014B07900127302C08DB392C06DC55
:1042D00001AB0A2207A92046FFF7FEFE0446642C24
:1042E00021D007DC6CB1252C57D0582C2BD0632C57
:1042F00057D13EE0732C43D0752C03D0782C50D18D
:1043000020E059E0089901C902AB002208910A2176
:1043100000F07CF802A83B46009029463046019AFE
:10432000FFF790FF3EE0089901C9089102A9FFF745
:1043300057FF02A83B46009029463046019AFFF7F6
:1043400081FF2FE000BF089901C90891582C01D1C5
:10435000012100E000210A4602AB102100F056F8CE
:1043600002A83B46009029463046019AFFF76AFFB3
:1043700018E0089804C8D1B208903046A84711E068
:10438000089800680899091D0023089100902946A3
:104390003046019AFFF756FF04E021463046A84711
:1043A00000BF00BF00BF00BF079810F8011B0C0042
:1043B00007907FF475AF00BF09B0F0BD0FB408B52A
:1043C00003A800900648009B029A0168054800680F
:1043D000FFF761FF0020009001B05DF814FB0000C2
:1043E000040300200803002070B505460C46214652
:1043F0000548FFF7A0FD00BF80210348FFF7F8FC48
:104400000028F9D070BD000000380140F0B5044626
:1044100015460026012000E04843B4FBF0F28A4232
:10442000FAD219E0B4FBF0F2B4FBF0F700FB17444A
:10443000B0FBF1F016B9002A00DC60B90A2A01DAF3
:10444000302704E00DB1412700E061270A3F1744FF
:1044500003F8017B761C00BF0028E3D100221A700C
:10446000F0BD000001000200010003000100020095
:10447000010004000100020001000300010002002D
:10448000010005000100020001000300010002001C
:10449000010004000100020001000300010002000D
:1044A00001000600010002000100030001000200FB
:1044B00001000400010002000100030001000200ED
:1044C00001000500010002000100030001000200DC
:1044D00001000400010002000100030001000200CD
:1044E00001000700010002000100030001000200BA
:1044F00001000400010002000100030001000200AD
:10450000010005000100020001000300010002009B
:10451000010004000100020001000300010002008C
:10452000010006000100020001000300010002007A
:10453000010004000100020001000300010002006C
:10454000010005000100020001000300010002005B
:10455000010004000100020001000300010002004C
:104560000100000000A24A0400A24A0400A24A047A
:104570000051250200A24A040000000000000000D3
:104580008080808080008000A0A0A000000000004B
:104590005050F850F85050002078A07028F02000BB
:1045A000C0C81020409818006090A040A8906800F3
:1045B000C04080000000000020408080804020003B
:1045C0008040202020408000005020F82050000033
:1045D000002020F8202000000000000000C04080E3
:1045E000000000F8000000000000000000C0C00053
:1045F0000008102040800000708898A8C8887000CB
:104600002060202020207000708808304080F80052
:10461000708808300888700010305090F810100032
:10462000F880F00808887000304080F088887000BA
:10463000F80810204040400070888870888870001A
:10464000708888780810600000C0C000C0C00000FA
:104650000000C0C000C040801020408040201000FA
:104660000000F800F800000080402010204080008A
:10467000708808102000200070880868A8A87000C2
:10468000708888F888888800F08888F08888F0002A
:104690007088808080887000E09088888890E00032
:1046A000F88080F08080F800F88080F080808000C2
:1046B0007088808098887800888888F88888880042
:1046C000E04040404040E000381010101090600082
:1046D0008890A0C0A0908800808080808080F800B2
:1046E00088D8A8A8888888008888C8A8988888005A
:1046F0007088888888887000F08888F080808000C2
:1047000070888888A8906800F08888F0A090880059
:104710007088807008887000F820202020202000F9
:1047200088888888888870008888888888502000D1
:10473000888888A8A8A850008888502050888800B9
:104740008888502020202000F80810204080F800A1
:10475000E08080808080E000008040201008000021
:10476000E02020202020E0002050880000000000F1
:1047700000000000000000F8804020000000000061
:1047800000007008788878008080B0C88888F000C1
:104790000000609080906000080868988888780021
:1047A00000007088F8807000205040E040404000D9
:1047B00000007888887808708080B0C88888880071
:1047C000400040404040400020006020202020C0A9
:1047D000808090A0C0A09000C04040404040E000D9
:1047E0000000D0A8A88888000000B0D09090900069
:1047F00000006090909060000000E09090E0808069
:104800000000709090701010000050604040400018
:10481000000070806010E0004040E04040406000D8
:1048200000009090909070000000888888502000D0
:1048300000008888A8A850000000885020508800F8
:1048400000009090907010600000F8102040F80078
:1048500020404080404020004040404040404000D8
:104860008040402040408000689000000000000030
:10487000F8F8F8F8F8F8F800804020100804020171
:1048800001020408102040802348656C7000235307
:10489000696D4B6579000000B848000800000020F1
:1048A0002403000084020008FC48000824030020C0
:1048B000BC3700009840000813A93B1B086904138B
:1048C000CD3A1B081908012C1388483308061365D4
:1048D00012140835112A08101A8E04294529144B80
:1048E0005533104102FF0401FF01A92D0102030409
:0C48F0000440090607080902040608003D
:0400000508000131BD
:00000001FF
